{
  "contractName": "DiGiDiMarketPlace",
  "abi": [
    {
      "inputs": [],
      "payable": false,
      "stateMutability": "nonpayable",
      "type": "constructor"
    },
    {
      "constant": false,
      "inputs": [
        {
          "name": "mLAddress",
          "type": "address"
        }
      ],
      "name": "setMediaLibrary",
      "outputs": [],
      "payable": false,
      "stateMutability": "nonpayable",
      "type": "function"
    },
    {
      "constant": true,
      "inputs": [
        {
          "name": "mediaId",
          "type": "string"
        }
      ],
      "name": "requestMediaFileStream",
      "outputs": [
        {
          "name": "",
          "type": "bool"
        }
      ],
      "payable": false,
      "stateMutability": "view",
      "type": "function"
    },
    {
      "constant": true,
      "inputs": [],
      "name": "requestMediaFileDownload",
      "outputs": [
        {
          "name": "",
          "type": "bool"
        }
      ],
      "payable": false,
      "stateMutability": "pure",
      "type": "function"
    }
  ],
  "bytecode": "0x608060405234801561001057600080fd5b5061032b806100206000396000f3fe608060405234801561001057600080fd5b50600436106100415760003560e01c8063099f7b0d1461004657806367352b5e1461008a578063a53be056146100ac575b600080fd5b6100886004803603602081101561005c57600080fd5b81019080803573ffffffffffffffffffffffffffffffffffffffff16906020019092919050505061017f565b005b6100926101c2565b604051808215151515815260200191505060405180910390f35b610165600480360360208110156100c257600080fd5b81019080803590602001906401000000008111156100df57600080fd5b8201836020820111156100f157600080fd5b8035906020019184600183028401116401000000008311171561011357600080fd5b91908080601f016020809104026020016040519081016040528093929190818152602001838380828437600081840152601f19601f8201169050808301925050505050505091929192905050506101cb565b604051808215151515815260200191505060405180910390f35b806000806101000a81548173ffffffffffffffffffffffffffffffffffffffff021916908373ffffffffffffffffffffffffffffffffffffffff16021790555050565b60006001905090565b60008060009054906101000a900473ffffffffffffffffffffffffffffffffffffffff1673ffffffffffffffffffffffffffffffffffffffff1663aea97acc836040518263ffffffff1660e01b81526004018080602001828103825283818151815260200191508051906020019080838360005b8381101561025a57808201518184015260208101905061023f565b50505050905090810190601f1680156102875780820380516001836020036101000a031916815260200191505b509250505060606040518083038186803b1580156102a457600080fd5b505afa1580156102b8573d6000803e3d6000fd5b505050506040513d60608110156102ce57600080fd5b810190808051906020019092919080519060200190929190805190602001909291905050505050506001905091905056fea165627a7a72305820efa03d30e87b481fa7320f4c569a3a7172fdb188859e6b6aa3eb4a8ed674bdf40029",
  "source": "pragma solidity ^0.5.8;\n\nimport \"./MediaLibrary.sol\";\n\n/*\n    The market place\n*/\ncontract DiGiDiMarketPlace {\n\n    // The end user streaming music\n    struct User {\n        address user;\n        uint256 listenCounter;\n    }\n\n    MediaLibrary mL;\n\n    constructor() public {\n\n    }\n\n    function setMediaLibrary(address mLAddress) public {\n        mL = MediaLibrary(mLAddress);\n    }\n\n    // A user wants to stream a song\n    function requestMediaFileStream(string memory mediaId) public view returns(bool) {\n        mL.retrieveMediaFile(mediaId);\n\n        return true;\n    }\n\n    // A user wants to stream a song\n    function requestMediaFileDownload() public pure returns(bool) {\n\n        return true;\n    }\n}",
  "sourcePath": "/home/dehling/Development/DiGiDi/contracts/DiGiDiMarketPlace.sol",
  "compiler": {
    "name": "solc",
    "version": "0.5.8+commit.23d335f2.Emscripten.clang"
  },
  "schemaVersion": "3.0.11",
  "updatedAt": "2019-08-15T08:34:44.080Z",
  "devdoc": {
    "methods": {}
  },
  "userdoc": {
    "methods": {}
  }
}