{
  "contractName": "DiGiDiMarketPlace",
  "abi": [
    {
      "constant": false,
      "inputs": [
        {
          "name": "spender",
          "type": "address"
        },
        {
          "name": "value",
          "type": "uint256"
        }
      ],
      "name": "approve",
      "outputs": [
        {
          "name": "",
          "type": "bool"
        }
      ],
      "payable": false,
      "stateMutability": "nonpayable",
      "type": "function"
    },
    {
      "constant": true,
      "inputs": [],
      "name": "totalSupply",
      "outputs": [
        {
          "name": "",
          "type": "uint256"
        }
      ],
      "payable": false,
      "stateMutability": "view",
      "type": "function"
    },
    {
      "constant": false,
      "inputs": [
        {
          "name": "sender",
          "type": "address"
        },
        {
          "name": "recipient",
          "type": "address"
        },
        {
          "name": "amount",
          "type": "uint256"
        }
      ],
      "name": "transferFrom",
      "outputs": [
        {
          "name": "",
          "type": "bool"
        }
      ],
      "payable": false,
      "stateMutability": "nonpayable",
      "type": "function"
    },
    {
      "constant": false,
      "inputs": [
        {
          "name": "spender",
          "type": "address"
        },
        {
          "name": "addedValue",
          "type": "uint256"
        }
      ],
      "name": "increaseAllowance",
      "outputs": [
        {
          "name": "",
          "type": "bool"
        }
      ],
      "payable": false,
      "stateMutability": "nonpayable",
      "type": "function"
    },
    {
      "constant": false,
      "inputs": [
        {
          "name": "mediaId",
          "type": "bytes32"
        },
        {
          "name": "price",
          "type": "uint8"
        },
        {
          "name": "ipfsAddress",
          "type": "string"
        },
        {
          "name": "shareholders",
          "type": "address[]"
        },
        {
          "name": "shares",
          "type": "uint8[]"
        }
      ],
      "name": "registerMediaFile",
      "outputs": [
        {
          "name": "",
          "type": "bool"
        }
      ],
      "payable": false,
      "stateMutability": "nonpayable",
      "type": "function"
    },
    {
      "constant": false,
      "inputs": [],
      "name": "requestPayment",
      "outputs": [
        {
          "name": "",
          "type": "bool"
        }
      ],
      "payable": false,
      "stateMutability": "nonpayable",
      "type": "function"
    },
    {
      "constant": true,
      "inputs": [
        {
          "name": "account",
          "type": "address"
        }
      ],
      "name": "balanceOf",
      "outputs": [
        {
          "name": "",
          "type": "uint256"
        }
      ],
      "payable": false,
      "stateMutability": "view",
      "type": "function"
    },
    {
      "constant": false,
      "inputs": [
        {
          "name": "oldFileHash",
          "type": "bytes32"
        },
        {
          "name": "newFileHash",
          "type": "bytes32"
        },
        {
          "name": "newPrice",
          "type": "uint8"
        },
        {
          "name": "ipfsArray",
          "type": "string"
        }
      ],
      "name": "updateMediaFile",
      "outputs": [
        {
          "name": "",
          "type": "bool"
        }
      ],
      "payable": false,
      "stateMutability": "nonpayable",
      "type": "function"
    },
    {
      "constant": false,
      "inputs": [
        {
          "name": "spender",
          "type": "address"
        },
        {
          "name": "subtractedValue",
          "type": "uint256"
        }
      ],
      "name": "decreaseAllowance",
      "outputs": [
        {
          "name": "",
          "type": "bool"
        }
      ],
      "payable": false,
      "stateMutability": "nonpayable",
      "type": "function"
    },
    {
      "constant": false,
      "inputs": [
        {
          "name": "recipient",
          "type": "address"
        },
        {
          "name": "amount",
          "type": "uint256"
        }
      ],
      "name": "transfer",
      "outputs": [
        {
          "name": "",
          "type": "bool"
        }
      ],
      "payable": false,
      "stateMutability": "nonpayable",
      "type": "function"
    },
    {
      "constant": true,
      "inputs": [
        {
          "name": "source",
          "type": "string"
        }
      ],
      "name": "stringToBytes32",
      "outputs": [
        {
          "name": "result",
          "type": "bytes32"
        }
      ],
      "payable": false,
      "stateMutability": "pure",
      "type": "function"
    },
    {
      "constant": true,
      "inputs": [
        {
          "name": "approved",
          "type": "bool"
        },
        {
          "name": "trackId",
          "type": "string"
        }
      ],
      "name": "approveMediaFile",
      "outputs": [
        {
          "name": "",
          "type": "bool"
        }
      ],
      "payable": false,
      "stateMutability": "view",
      "type": "function"
    },
    {
      "constant": true,
      "inputs": [
        {
          "name": "owner",
          "type": "address"
        },
        {
          "name": "spender",
          "type": "address"
        }
      ],
      "name": "allowance",
      "outputs": [
        {
          "name": "",
          "type": "uint256"
        }
      ],
      "payable": false,
      "stateMutability": "view",
      "type": "function"
    },
    {
      "constant": true,
      "inputs": [],
      "name": "getNumOfMediaFiles",
      "outputs": [
        {
          "name": "",
          "type": "uint256"
        }
      ],
      "payable": false,
      "stateMutability": "view",
      "type": "function"
    },
    {
      "constant": false,
      "inputs": [
        {
          "name": "trackId",
          "type": "bytes32"
        }
      ],
      "name": "unregisterMediaFile",
      "outputs": [
        {
          "name": "",
          "type": "bool"
        }
      ],
      "payable": false,
      "stateMutability": "nonpayable",
      "type": "function"
    },
    {
      "anonymous": false,
      "inputs": [
        {
          "indexed": false,
          "name": "",
          "type": "string"
        },
        {
          "indexed": false,
          "name": "",
          "type": "bytes32"
        }
      ],
      "name": "IPFSAddressEvent",
      "type": "event"
    },
    {
      "anonymous": false,
      "inputs": [
        {
          "indexed": false,
          "name": "",
          "type": "uint256"
        }
      ],
      "name": "GetMediaFilePriceEvent",
      "type": "event"
    },
    {
      "anonymous": false,
      "inputs": [
        {
          "indexed": false,
          "name": "",
          "type": "bytes32"
        }
      ],
      "name": "MediaIDEvent",
      "type": "event"
    },
    {
      "anonymous": false,
      "inputs": [
        {
          "indexed": true,
          "name": "from",
          "type": "address"
        },
        {
          "indexed": true,
          "name": "to",
          "type": "address"
        },
        {
          "indexed": false,
          "name": "value",
          "type": "uint256"
        }
      ],
      "name": "Transfer",
      "type": "event"
    },
    {
      "anonymous": false,
      "inputs": [
        {
          "indexed": true,
          "name": "owner",
          "type": "address"
        },
        {
          "indexed": true,
          "name": "spender",
          "type": "address"
        },
        {
          "indexed": false,
          "name": "value",
          "type": "uint256"
        }
      ],
      "name": "Approval",
      "type": "event"
    },
    {
      "constant": false,
      "inputs": [
        {
          "name": "mediaId",
          "type": "bytes32"
        }
      ],
      "name": "requestMediaFileStream",
      "outputs": [
        {
          "name": "",
          "type": "bool"
        }
      ],
      "payable": true,
      "stateMutability": "payable",
      "type": "function"
    },
    {
      "constant": false,
      "inputs": [
        {
          "name": "mediaId",
          "type": "bytes32"
        }
      ],
      "name": "getPrice",
      "outputs": [
        {
          "name": "",
          "type": "uint256"
        }
      ],
      "payable": false,
      "stateMutability": "nonpayable",
      "type": "function"
    }
  ],
  "bytecode": "0x6080604052600060085533600760006101000a81548173ffffffffffffffffffffffffffffffffffffffff021916908373ffffffffffffffffffffffffffffffffffffffff160217905550600060068190555033600960006101000a81548173ffffffffffffffffffffffffffffffffffffffff021916908373ffffffffffffffffffffffffffffffffffffffff160217905550612164806100a26000396000f3fe6080604052600436106100fe5760003560e01c806395678c5f11610095578063cfb5192811610064578063cfb51928146107d6578063d06ef175146108b2578063dd62ed3e1461099e578063f435901f14610a23578063f51a193014610a4e576100fe565b806395678c5f146105a95780639a9bb238146105ef578063a457c2d7146106f0578063a9059cbb14610763576100fe565b806339509351116100d157806339509351146102835780633b8d4014146102f657806363bdb94b1461051557806370a0823114610544576100fe565b8063095ea7b31461010357806318160ddd1461017657806323b872dd146101a157806331d98b3f14610234575b600080fd5b34801561010f57600080fd5b5061015c6004803603604081101561012657600080fd5b81019080803573ffffffffffffffffffffffffffffffffffffffff16906020019092919080359060200190929190505050610aa1565b604051808215151515815260200191505060405180910390f35b34801561018257600080fd5b5061018b610ab8565b6040518082815260200191505060405180910390f35b3480156101ad57600080fd5b5061021a600480360360608110156101c457600080fd5b81019080803573ffffffffffffffffffffffffffffffffffffffff169060200190929190803573ffffffffffffffffffffffffffffffffffffffff16906020019092919080359060200190929190505050610ac2565b604051808215151515815260200191505060405180910390f35b34801561024057600080fd5b5061026d6004803603602081101561025757600080fd5b8101908080359060200190929190505050610b73565b6040518082815260200191505060405180910390f35b34801561028f57600080fd5b506102dc600480360360408110156102a657600080fd5b81019080803573ffffffffffffffffffffffffffffffffffffffff16906020019092919080359060200190929190505050610be0565b604051808215151515815260200191505060405180910390f35b34801561030257600080fd5b506104fb600480360360a081101561031957600080fd5b8101908080359060200190929190803560ff1690602001909291908035906020019064010000000081111561034d57600080fd5b82018360208201111561035f57600080fd5b8035906020019184600183028401116401000000008311171561038157600080fd5b91908080601f016020809104026020016040519081016040528093929190818152602001838380828437600081840152601f19601f820116905080830192505050505050509192919290803590602001906401000000008111156103e457600080fd5b8201836020820111156103f657600080fd5b8035906020019184602083028401116401000000008311171561041857600080fd5b919080806020026020016040519081016040528093929190818152602001838360200280828437600081840152601f19601f8201169050808301925050505050505091929192908035906020019064010000000081111561047857600080fd5b82018360208201111561048a57600080fd5b803590602001918460208302840111640100000000831117156104ac57600080fd5b919080806020026020016040519081016040528093929190818152602001838360200280828437600081840152601f19601f820116905080830192505050505050509192919290505050610c85565b604051808215151515815260200191505060405180910390f35b34801561052157600080fd5b5061052a610f4d565b604051808215151515815260200191505060405180910390f35b34801561055057600080fd5b506105936004803603602081101561056757600080fd5b81019080803573ffffffffffffffffffffffffffffffffffffffff169060200190929190505050611026565b6040518082815260200191505060405180910390f35b6105d5600480360360208110156105bf57600080fd5b810190808035906020019092919050505061106e565b604051808215151515815260200191505060405180910390f35b3480156105fb57600080fd5b506106d66004803603608081101561061257600080fd5b810190808035906020019092919080359060200190929190803560ff1690602001909291908035906020019064010000000081111561065057600080fd5b82018360208201111561066257600080fd5b8035906020019184600183028401116401000000008311171561068457600080fd5b91908080601f016020809104026020016040519081016040528093929190818152602001838380828437600081840152601f19601f8201169050808301925050505050505091929192905050506112b4565b604051808215151515815260200191505060405180910390f35b3480156106fc57600080fd5b506107496004803603604081101561071357600080fd5b81019080803573ffffffffffffffffffffffffffffffffffffffff16906020019092919080359060200190929190505050611477565b604051808215151515815260200191505060405180910390f35b34801561076f57600080fd5b506107bc6004803603604081101561078657600080fd5b81019080803573ffffffffffffffffffffffffffffffffffffffff1690602001909291908035906020019092919050505061151c565b604051808215151515815260200191505060405180910390f35b3480156107e257600080fd5b5061089c600480360360208110156107f957600080fd5b810190808035906020019064010000000081111561081657600080fd5b82018360208201111561082857600080fd5b8035906020019184600183028401116401000000008311171561084a57600080fd5b91908080601f016020809104026020016040519081016040528093929190818152602001838380828437600081840152601f19601f820116905080830192505050505050509192919290505050611533565b6040518082815260200191505060405180910390f35b3480156108be57600080fd5b50610984600480360360408110156108d557600080fd5b81019080803515159060200190929190803590602001906401000000008111156108fe57600080fd5b82018360208201111561091057600080fd5b8035906020019184600183028401116401000000008311171561093257600080fd5b91908080601f016020809104026020016040519081016040528093929190818152602001838380828437600081840152601f19601f82011690508083019250505050505050919291929050505061155e565b604051808215151515815260200191505060405180910390f35b3480156109aa57600080fd5b50610a0d600480360360408110156109c157600080fd5b81019080803573ffffffffffffffffffffffffffffffffffffffff169060200190929190803573ffffffffffffffffffffffffffffffffffffffff1690602001909291905050506116c8565b6040518082815260200191505060405180910390f35b348015610a2f57600080fd5b50610a3861174f565b6040518082815260200191505060405180910390f35b348015610a5a57600080fd5b50610a8760048036036020811015610a7157600080fd5b8101908080359060200190929190505050611759565b604051808215151515815260200191505060405180910390f35b6000610aae3384846117e9565b6001905092915050565b6000600254905090565b6000610acf8484846119e0565b610b688433610b6385600160008a73ffffffffffffffffffffffffffffffffffffffff1673ffffffffffffffffffffffffffffffffffffffff16815260200190815260200160002060003373ffffffffffffffffffffffffffffffffffffffff1673ffffffffffffffffffffffffffffffffffffffff16815260200190815260200160002054611c7c90919063ffffffff16565b6117e9565b600190509392505050565b60007fd8ccd30101f7cd17302cda0817e40bf34242aa086a06f05d48cbd69c04ee178a60036000848152602001908152602001600020600101546040518082815260200191505060405180910390a160036000838152602001908152602001600020600101549050919050565b6000610c7b3384610c7685600160003373ffffffffffffffffffffffffffffffffffffffff1673ffffffffffffffffffffffffffffffffffffffff16815260200190815260200160002060008973ffffffffffffffffffffffffffffffffffffffff1673ffffffffffffffffffffffffffffffffffffffff16815260200190815260200160002054611d0590919063ffffffff16565b6117e9565b6001905092915050565b60008151835114610ce1576040517f08c379a00000000000000000000000000000000000000000000000000000000081526004018080602001828103825260328152602001806120be6032913960400191505060405180910390fd5b60405180608001604052803373ffffffffffffffffffffffffffffffffffffffff1681526020016000151581526020018660ff168152602001858152506003600088815260200190815260200160002060008201518160000160006101000a81548173ffffffffffffffffffffffffffffffffffffffff021916908373ffffffffffffffffffffffffffffffffffffffff16021790555060208201518160000160146101000a81548160ff021916908315150217905550604082015181600101556060820151816002019080519060200190610dbe929190611f18565b5090505060008090505b83518160ff161015610eec57610ddc611f98565b6040518060400160405280868460ff1681518110610df657fe5b602002602001015173ffffffffffffffffffffffffffffffffffffffff168152602001858460ff1681518110610e2857fe5b602002602001015160ff168152509050600460008981526020019081526020016000208190806001815401808255809150509060018203906000526020600020016000909192909190915060008201518160000160006101000a81548173ffffffffffffffffffffffffffffffffffffffff021916908373ffffffffffffffffffffffffffffffffffffffff16021790555060208201518160000160146101000a81548160ff021916908360ff160217905550505050508080600101915050610dc8565b50610f036001600654611d0590919063ffffffff16565b6006819055507ff57b2c8d38a71002506306b32ba886193245cdbe9f596b91ed43c3d232425d9a866040518082815260200191505060405180910390a16001905095945050505050565b600080600a60003373ffffffffffffffffffffffffffffffffffffffff1673ffffffffffffffffffffffffffffffffffffffff1681526020019081526020016000205490506000600a60003373ffffffffffffffffffffffffffffffffffffffff1673ffffffffffffffffffffffffffffffffffffffff168152602001908152602001600020819055503373ffffffffffffffffffffffffffffffffffffffff166108fc829081150290604051600060405180830381858888f1935050505015801561101d573d6000803e3d6000fd5b50600191505090565b60008060008373ffffffffffffffffffffffffffffffffffffffff1673ffffffffffffffffffffffffffffffffffffffff168152602001908152602001600020549050919050565b60008061107a83610b73565b9050600081116110f2576040517f08c379a00000000000000000000000000000000000000000000000000000000081526004018080602001828103825260128152602001807f4d6564696120686173206e6f207072696365000000000000000000000000000081525060200191505060405180910390fd5b34811115611168576040517f08c379a00000000000000000000000000000000000000000000000000000000081526004018080602001828103825260158152602001807f4e6f7420656e6f7567682066756e64732073656e74000000000000000000000081525060200191505060405180910390fd5b61117183611d8d565b5060006111878234611c7c90919063ffffffff16565b90507fa47dee5a404001bb6f55a922e8869d7fdfcd35b8d4f2aa22e9db9cc99ee5ab2c6040518060400160405280600781526020017f6173646164617300000000000000000000000000000000000000000000000000815250856040518080602001838152602001828103825284818151815260200191508051906020019080838360005b8381101561122757808201518184015260208101905061120c565b50505050905090810190601f1680156112545780820380516001836020036101000a031916815260200191505b50935050505060405180910390a13373ffffffffffffffffffffffffffffffffffffffff166108fc829081150290604051600060405180830381858888f193505050501580156112a8573d6000803e3d6000fd5b50600192505050919050565b60003373ffffffffffffffffffffffffffffffffffffffff166003600087815260200190815260200160002060000160009054906101000a900473ffffffffffffffffffffffffffffffffffffffff1673ffffffffffffffffffffffffffffffffffffffff16141561146b5760036000868152602001908152602001600020600080820160006101000a81549073ffffffffffffffffffffffffffffffffffffffff02191690556000820160146101000a81549060ff021916905560018201600090556002820160006113879190611fcb565b505060405180608001604052803373ffffffffffffffffffffffffffffffffffffffff1681526020016000151581526020018460ff168152602001838152506003600086815260200190815260200160002060008201518160000160006101000a81548173ffffffffffffffffffffffffffffffffffffffff021916908373ffffffffffffffffffffffffffffffffffffffff16021790555060208201518160000160146101000a81548160ff021916908315150217905550604082015181600101556060820151816002019080519060200190611466929190611f18565b509050505b60019050949350505050565b6000611512338461150d85600160003373ffffffffffffffffffffffffffffffffffffffff1673ffffffffffffffffffffffffffffffffffffffff16815260200190815260200160002060008973ffffffffffffffffffffffffffffffffffffffff1673ffffffffffffffffffffffffffffffffffffffff16815260200190815260200160002054611c7c90919063ffffffff16565b6117e9565b6001905092915050565b60006115293384846119e0565b6001905092915050565b60006060829050600081511415611550576000801b915050611559565b60208301519150505b919050565b6000611568612013565b6003600061157585611533565b81526020019081526020016000206040518060800160405290816000820160009054906101000a900473ffffffffffffffffffffffffffffffffffffffff1673ffffffffffffffffffffffffffffffffffffffff1673ffffffffffffffffffffffffffffffffffffffff1681526020016000820160149054906101000a900460ff1615151515815260200160018201548152602001600282018054600181600116156101000203166002900480601f0160208091040260200160405190810160405280929190818152602001828054600181600116156101000203166002900480156116a25780601f10611677576101008083540402835291602001916116a2565b820191906000526020600020905b81548152906001019060200180831161168557829003601f168201915b505050505081525050905083816020019015159081151581525050600191505092915050565b6000600160008473ffffffffffffffffffffffffffffffffffffffff1673ffffffffffffffffffffffffffffffffffffffff16815260200190815260200160002060008373ffffffffffffffffffffffffffffffffffffffff1673ffffffffffffffffffffffffffffffffffffffff16815260200190815260200160002054905092915050565b6000600654905090565b600060036000838152602001908152602001600020600080820160006101000a81549073ffffffffffffffffffffffffffffffffffffffff02191690556000820160146101000a81549060ff021916905560018201600090556002820160006117c29190611fcb565b50506117da6001600654611c7c90919063ffffffff16565b60068190555060019050919050565b600073ffffffffffffffffffffffffffffffffffffffff168373ffffffffffffffffffffffffffffffffffffffff16141561186f576040517f08c379a00000000000000000000000000000000000000000000000000000000081526004018080602001828103825260248152602001806121156024913960400191505060405180910390fd5b600073ffffffffffffffffffffffffffffffffffffffff168273ffffffffffffffffffffffffffffffffffffffff1614156118f5576040517f08c379a000000000000000000000000000000000000000000000000000000000815260040180806020018281038252602281526020018061209c6022913960400191505060405180910390fd5b80600160008573ffffffffffffffffffffffffffffffffffffffff1673ffffffffffffffffffffffffffffffffffffffff16815260200190815260200160002060008473ffffffffffffffffffffffffffffffffffffffff1673ffffffffffffffffffffffffffffffffffffffff168152602001908152602001600020819055508173ffffffffffffffffffffffffffffffffffffffff168373ffffffffffffffffffffffffffffffffffffffff167f8c5be1e5ebec7d5bd14f71427d1e84f3dd0314c0f7b2291e5b200ac8c7c3b925836040518082815260200191505060405180910390a3505050565b600073ffffffffffffffffffffffffffffffffffffffff168373ffffffffffffffffffffffffffffffffffffffff161415611a66576040517f08c379a00000000000000000000000000000000000000000000000000000000081526004018080602001828103825260258152602001806120f06025913960400191505060405180910390fd5b600073ffffffffffffffffffffffffffffffffffffffff168273ffffffffffffffffffffffffffffffffffffffff161415611aec576040517f08c379a00000000000000000000000000000000000000000000000000000000081526004018080602001828103825260238152602001806120796023913960400191505060405180910390fd5b611b3d816000808673ffffffffffffffffffffffffffffffffffffffff1673ffffffffffffffffffffffffffffffffffffffff16815260200190815260200160002054611c7c90919063ffffffff16565b6000808573ffffffffffffffffffffffffffffffffffffffff1673ffffffffffffffffffffffffffffffffffffffff16815260200190815260200160002081905550611bd0816000808573ffffffffffffffffffffffffffffffffffffffff1673ffffffffffffffffffffffffffffffffffffffff16815260200190815260200160002054611d0590919063ffffffff16565b6000808473ffffffffffffffffffffffffffffffffffffffff1673ffffffffffffffffffffffffffffffffffffffff168152602001908152602001600020819055508173ffffffffffffffffffffffffffffffffffffffff168373ffffffffffffffffffffffffffffffffffffffff167fddf252ad1be2c89b69c2b068fc378daa952ba7f163c4a11628f55a4df523b3ef836040518082815260200191505060405180910390a3505050565b600082821115611cf4576040517f08c379a000000000000000000000000000000000000000000000000000000000815260040180806020018281038252601e8152602001807f536166654d6174683a207375627472616374696f6e206f766572666c6f77000081525060200191505060405180910390fd5b600082840390508091505092915050565b600080828401905083811015611d83576040517f08c379a000000000000000000000000000000000000000000000000000000000815260040180806020018281038252601b8152602001807f536166654d6174683a206164646974696f6e206f766572666c6f77000000000081525060200191505060405180910390fd5b8091505092915050565b60008060085490505b6004600084815260200190815260200160002080549050811015611f0657611dbc611f98565b600460008581526020019081526020016000208281548110611dda57fe5b906000526020600020016040518060400160405290816000820160009054906101000a900473ffffffffffffffffffffffffffffffffffffffff1673ffffffffffffffffffffffffffffffffffffffff1673ffffffffffffffffffffffffffffffffffffffff1681526020016000820160149054906101000a900460ff1660ff1660ff168152505090506000816020015160ff16600360008781526020019081526020016000206001015481611e8c57fe5b04905080600a6000846000015173ffffffffffffffffffffffffffffffffffffffff1673ffffffffffffffffffffffffffffffffffffffff16815260200190815260200160002060008282540192505081905550611ef66001600854611d0590919063ffffffff16565b5050508080600101915050611d96565b50600060088190555060019050919050565b828054600181600116156101000203166002900490600052602060002090601f016020900481019282601f10611f5957805160ff1916838001178555611f87565b82800160010185558215611f87579182015b82811115611f86578251825591602001919060010190611f6b565b5b509050611f949190612053565b5090565b6040518060400160405280600073ffffffffffffffffffffffffffffffffffffffff168152602001600060ff1681525090565b50805460018160011615610100020316600290046000825580601f10611ff15750612010565b601f01602090049060005260206000209081019061200f9190612053565b5b50565b6040518060800160405280600073ffffffffffffffffffffffffffffffffffffffff16815260200160001515815260200160008152602001606081525090565b61207591905b80821115612071576000816000905550600101612059565b5090565b9056fe45524332303a207472616e7366657220746f20746865207a65726f206164647265737345524332303a20617070726f766520746f20746865207a65726f20616464726573735368617265686f6c6465727320616e642073686172657320617265206e6f74206f66207468652073616d65206c656e67746845524332303a207472616e736665722066726f6d20746865207a65726f206164647265737345524332303a20617070726f76652066726f6d20746865207a65726f2061646472657373a165627a7a723058206b566844166d8998f69c86ac5fb9554c7006013a6f08a19ca7a8393dd198a5470029",
  "source": "pragma solidity ^0.5.8;\n\nimport \"./Payments.sol\";\n\n/*\n    The market place\n*/\ncontract DiGiDiMarketPlace is Payments {\n    using SafeMath for uint256;\n\n    event IPFSAddressEvent(string, bytes32);\n    event GetMediaFilePriceEvent(uint256);\n\n    //ToDo: Connect to IPFS\n    string constant TEMPORARY_IPFS_ADDRESS = \"asdadas\";\n\n    // Manages that a user is able to retrieve a media file\n    function requestMediaFileStream(bytes32 mediaId) public payable returns(bool) {\n\n        // The price of the song\n        uint256 price = getPrice(mediaId);\n\n        require(price > 0, \"Media has no price\");\n\n        // Make sure the msg had enough ether\n        require(price <= msg.value, \"Not enough funds sent\");\n\n\n        //require(checkAccessToMediaFile(mediaId) == true, \"You are not permitted to access this file\");\n\n        //Update the balance of all stakeholders\n        updateOwed(mediaId);\n\n        // Pay back change\n        uint256 change = msg.value.sub(price);\n\n        emit IPFSAddressEvent(TEMPORARY_IPFS_ADDRESS, mediaId);\n        msg.sender.transfer(change);\n\n        return true;\n    }\n\n    function getPrice(bytes32 mediaId) public returns (uint256) {\n        emit GetMediaFilePriceEvent(mediaLibrary[mediaId].price);\n        return mediaLibrary[mediaId].price;\n    }\n\n//    function pay(bytes32 mediaId) payable public returns(bool){\n//\n//\n//        // The price of the song\n//        uint256 price = getPrice(mediaId);\n//\n//        require(price > 0, \"Media has no price\");\n//\n//        // Make sure the msg had enough ether\n//        require(price <= msg.value, \"Not enough funds sent\");\n//\n//        // Make sure shareholders are paid\n//        updateOwed(mediaId);\n//\n//        // Pay back change\n//        uint256 change = msg.value.sub(price);\n//\n//        msg.sender.transfer(remittance);\n//        return true;\n//    }\n\n}",
  "sourcePath": "/home/anders/bss2019/BlockchainSummerSchool/contracts/DiGiDiMarketPlace.sol",
  "compiler": {
    "name": "solc",
    "version": "0.5.8+commit.23d335f2.Emscripten.clang"
  },
  "schemaVersion": "3.0.11",
  "updatedAt": "2019-08-15T18:07:33.793Z",
  "devdoc": {
    "methods": {
      "allowance(address,address)": {
        "details": "See `IERC20.allowance`."
      },
      "approve(address,uint256)": {
        "details": "See `IERC20.approve`.     * Requirements:     * - `spender` cannot be the zero address."
      },
      "balanceOf(address)": {
        "details": "See `IERC20.balanceOf`."
      },
      "decreaseAllowance(address,uint256)": {
        "details": "Atomically decreases the allowance granted to `spender` by the caller.     * This is an alternative to `approve` that can be used as a mitigation for problems described in `IERC20.approve`.     * Emits an `Approval` event indicating the updated allowance.     * Requirements:     * - `spender` cannot be the zero address. - `spender` must have allowance for the caller of at least `subtractedValue`."
      },
      "increaseAllowance(address,uint256)": {
        "details": "Atomically increases the allowance granted to `spender` by the caller.     * This is an alternative to `approve` that can be used as a mitigation for problems described in `IERC20.approve`.     * Emits an `Approval` event indicating the updated allowance.     * Requirements:     * - `spender` cannot be the zero address."
      },
      "totalSupply()": {
        "details": "See `IERC20.totalSupply`."
      },
      "transfer(address,uint256)": {
        "details": "See `IERC20.transfer`.     * Requirements:     * - `recipient` cannot be the zero address. - the caller must have a balance of at least `amount`."
      },
      "transferFrom(address,address,uint256)": {
        "details": "See `IERC20.transferFrom`.     * Emits an `Approval` event indicating the updated allowance. This is not required by the EIP. See the note at the beginning of `ERC20`;     * Requirements: - `sender` and `recipient` cannot be the zero address. - `sender` must have a balance of at least `value`. - the caller must have allowance for `sender`'s tokens of at least `amount`."
      }
    }
  },
  "userdoc": {
    "methods": {
      "stringToBytes32(string)": {
        "notice": "Below, there are helper functions for the conversion of data types"
      }
    }
  }
}