{
  "contractName": "MediaLibrary",
  "abi": [
    {
      "constant": false,
      "inputs": [
        {
          "name": "spender",
          "type": "address"
        },
        {
          "name": "value",
          "type": "uint256"
        }
      ],
      "name": "approve",
      "outputs": [
        {
          "name": "",
          "type": "bool"
        }
      ],
      "payable": false,
      "stateMutability": "nonpayable",
      "type": "function"
    },
    {
      "constant": true,
      "inputs": [],
      "name": "totalSupply",
      "outputs": [
        {
          "name": "",
          "type": "uint256"
        }
      ],
      "payable": false,
      "stateMutability": "view",
      "type": "function"
    },
    {
      "constant": false,
      "inputs": [
        {
          "name": "sender",
          "type": "address"
        },
        {
          "name": "recipient",
          "type": "address"
        },
        {
          "name": "amount",
          "type": "uint256"
        }
      ],
      "name": "transferFrom",
      "outputs": [
        {
          "name": "",
          "type": "bool"
        }
      ],
      "payable": false,
      "stateMutability": "nonpayable",
      "type": "function"
    },
    {
      "constant": false,
      "inputs": [
        {
          "name": "spender",
          "type": "address"
        },
        {
          "name": "addedValue",
          "type": "uint256"
        }
      ],
      "name": "increaseAllowance",
      "outputs": [
        {
          "name": "",
          "type": "bool"
        }
      ],
      "payable": false,
      "stateMutability": "nonpayable",
      "type": "function"
    },
    {
      "constant": true,
      "inputs": [
        {
          "name": "account",
          "type": "address"
        }
      ],
      "name": "balanceOf",
      "outputs": [
        {
          "name": "",
          "type": "uint256"
        }
      ],
      "payable": false,
      "stateMutability": "view",
      "type": "function"
    },
    {
      "constant": false,
      "inputs": [
        {
          "name": "spender",
          "type": "address"
        },
        {
          "name": "subtractedValue",
          "type": "uint256"
        }
      ],
      "name": "decreaseAllowance",
      "outputs": [
        {
          "name": "",
          "type": "bool"
        }
      ],
      "payable": false,
      "stateMutability": "nonpayable",
      "type": "function"
    },
    {
      "constant": false,
      "inputs": [
        {
          "name": "recipient",
          "type": "address"
        },
        {
          "name": "amount",
          "type": "uint256"
        }
      ],
      "name": "transfer",
      "outputs": [
        {
          "name": "",
          "type": "bool"
        }
      ],
      "payable": false,
      "stateMutability": "nonpayable",
      "type": "function"
    },
    {
      "constant": true,
      "inputs": [
        {
          "name": "owner",
          "type": "address"
        },
        {
          "name": "spender",
          "type": "address"
        }
      ],
      "name": "allowance",
      "outputs": [
        {
          "name": "",
          "type": "uint256"
        }
      ],
      "payable": false,
      "stateMutability": "view",
      "type": "function"
    },
    {
      "inputs": [],
      "payable": false,
      "stateMutability": "nonpayable",
      "type": "constructor"
    },
    {
      "anonymous": false,
      "inputs": [
        {
          "indexed": false,
          "name": "",
          "type": "bytes32"
        }
      ],
      "name": "MediaIDEvent",
      "type": "event"
    },
    {
      "anonymous": false,
      "inputs": [
        {
          "indexed": true,
          "name": "from",
          "type": "address"
        },
        {
          "indexed": true,
          "name": "to",
          "type": "address"
        },
        {
          "indexed": false,
          "name": "value",
          "type": "uint256"
        }
      ],
      "name": "Transfer",
      "type": "event"
    },
    {
      "anonymous": false,
      "inputs": [
        {
          "indexed": true,
          "name": "owner",
          "type": "address"
        },
        {
          "indexed": true,
          "name": "spender",
          "type": "address"
        },
        {
          "indexed": false,
          "name": "value",
          "type": "uint256"
        }
      ],
      "name": "Approval",
      "type": "event"
    },
    {
      "constant": false,
      "inputs": [
        {
          "name": "mediaFile",
          "type": "string"
        },
        {
          "name": "price",
          "type": "uint8"
        },
        {
          "name": "ipfsAddress",
          "type": "string"
        },
        {
          "name": "shareholders",
          "type": "address[]"
        },
        {
          "name": "shares",
          "type": "uint8[]"
        }
      ],
      "name": "registerMediaFile",
      "outputs": [
        {
          "name": "",
          "type": "bool"
        }
      ],
      "payable": false,
      "stateMutability": "nonpayable",
      "type": "function"
    },
    {
      "constant": true,
      "inputs": [],
      "name": "getNumOfMediaFiles",
      "outputs": [
        {
          "name": "",
          "type": "uint256"
        }
      ],
      "payable": false,
      "stateMutability": "view",
      "type": "function"
    },
    {
      "constant": false,
      "inputs": [
        {
          "name": "oldFile",
          "type": "string"
        },
        {
          "name": "newFile",
          "type": "string"
        },
        {
          "name": "newPrice",
          "type": "uint8"
        },
        {
          "name": "ipfsArray",
          "type": "string"
        }
      ],
      "name": "updateMediaFile",
      "outputs": [
        {
          "name": "",
          "type": "bool"
        }
      ],
      "payable": false,
      "stateMutability": "nonpayable",
      "type": "function"
    },
    {
      "constant": false,
      "inputs": [
        {
          "name": "trackId",
          "type": "bytes32"
        }
      ],
      "name": "unregisterMediaFile",
      "outputs": [
        {
          "name": "",
          "type": "bool"
        }
      ],
      "payable": false,
      "stateMutability": "nonpayable",
      "type": "function"
    },
    {
      "constant": true,
      "inputs": [
        {
          "name": "approved",
          "type": "bool"
        },
        {
          "name": "trackId",
          "type": "string"
        }
      ],
      "name": "approveMediaFile",
      "outputs": [
        {
          "name": "",
          "type": "bool"
        }
      ],
      "payable": false,
      "stateMutability": "view",
      "type": "function"
    },
    {
      "constant": true,
      "inputs": [
        {
          "name": "source",
          "type": "string"
        }
      ],
      "name": "stringToBytes32",
      "outputs": [
        {
          "name": "result",
          "type": "bytes32"
        }
      ],
      "payable": false,
      "stateMutability": "pure",
      "type": "function"
    }
  ],
  "bytecode": "0x608060405234801561001057600080fd5b5033600760006101000a81548173ffffffffffffffffffffffffffffffffffffffff021916908373ffffffffffffffffffffffffffffffffffffffff1602179055506000600681905550611c8f806100696000396000f3fe608060405234801561001057600080fd5b50600436106100ea5760003560e01c8063a9059cbb1161008c578063d06ef17511610066578063d06ef175146108ff578063dd62ed3e146109de578063f435901f14610a56578063f51a193014610a74576100ea565b8063a9059cbb1461052b578063bed7c3a014610591578063cfb5192814610830576100ea565b806339509351116100c857806339509351146101f95780633fa3c4fa1461025f57806370a082311461046d578063a457c2d7146104c5576100ea565b8063095ea7b3146100ef57806318160ddd1461015557806323b872dd14610173575b600080fd5b61013b6004803603604081101561010557600080fd5b81019080803573ffffffffffffffffffffffffffffffffffffffff16906020019092919080359060200190929190505050610aba565b604051808215151515815260200191505060405180910390f35b61015d610ad1565b6040518082815260200191505060405180910390f35b6101df6004803603606081101561018957600080fd5b81019080803573ffffffffffffffffffffffffffffffffffffffff169060200190929190803573ffffffffffffffffffffffffffffffffffffffff16906020019092919080359060200190929190505050610adb565b604051808215151515815260200191505060405180910390f35b6102456004803603604081101561020f57600080fd5b81019080803573ffffffffffffffffffffffffffffffffffffffff16906020019092919080359060200190929190505050610b8c565b604051808215151515815260200191505060405180910390f35b6104536004803603608081101561027557600080fd5b810190808035906020019064010000000081111561029257600080fd5b8201836020820111156102a457600080fd5b803590602001918460018302840111640100000000831117156102c657600080fd5b91908080601f016020809104026020016040519081016040528093929190818152602001838380828437600081840152601f19601f8201169050808301925050505050505091929192908035906020019064010000000081111561032957600080fd5b82018360208201111561033b57600080fd5b8035906020019184600183028401116401000000008311171561035d57600080fd5b91908080601f016020809104026020016040519081016040528093929190818152602001838380828437600081840152601f19601f820116905080830192505050505050509192919290803560ff169060200190929190803590602001906401000000008111156103cd57600080fd5b8201836020820111156103df57600080fd5b8035906020019184600183028401116401000000008311171561040157600080fd5b91908080601f016020809104026020016040519081016040528093929190818152602001838380828437600081840152601f19601f820116905080830192505050505050509192919290505050610c31565b604051808215151515815260200191505060405180910390f35b6104af6004803603602081101561048357600080fd5b81019080803573ffffffffffffffffffffffffffffffffffffffff169060200190929190505050610e0f565b6040518082815260200191505060405180910390f35b610511600480360360408110156104db57600080fd5b81019080803573ffffffffffffffffffffffffffffffffffffffff16906020019092919080359060200190929190505050610e57565b604051808215151515815260200191505060405180910390f35b6105776004803603604081101561054157600080fd5b81019080803573ffffffffffffffffffffffffffffffffffffffff16906020019092919080359060200190929190505050610efc565b604051808215151515815260200191505060405180910390f35b610816600480360360a08110156105a757600080fd5b81019080803590602001906401000000008111156105c457600080fd5b8201836020820111156105d657600080fd5b803590602001918460018302840111640100000000831117156105f857600080fd5b91908080601f016020809104026020016040519081016040528093929190818152602001838380828437600081840152601f19601f820116905080830192505050505050509192919290803560ff1690602001909291908035906020019064010000000081111561066857600080fd5b82018360208201111561067a57600080fd5b8035906020019184600183028401116401000000008311171561069c57600080fd5b91908080601f016020809104026020016040519081016040528093929190818152602001838380828437600081840152601f19601f820116905080830192505050505050509192919290803590602001906401000000008111156106ff57600080fd5b82018360208201111561071157600080fd5b8035906020019184602083028401116401000000008311171561073357600080fd5b919080806020026020016040519081016040528093929190818152602001838360200280828437600081840152601f19601f8201169050808301925050505050505091929192908035906020019064010000000081111561079357600080fd5b8201836020820111156107a557600080fd5b803590602001918460208302840111640100000000831117156107c757600080fd5b919080806020026020016040519081016040528093929190818152602001838360200280828437600081840152601f19601f820116905080830192505050505050509192919290505050610f13565b604051808215151515815260200191505060405180910390f35b6108e96004803603602081101561084657600080fd5b810190808035906020019064010000000081111561086357600080fd5b82018360208201111561087557600080fd5b8035906020019184600183028401116401000000008311171561089757600080fd5b91908080601f016020809104026020016040519081016040528093929190818152602001838380828437600081840152601f19601f8201169050808301925050505050505091929192905050506111e9565b6040518082815260200191505060405180910390f35b6109c46004803603604081101561091557600080fd5b810190808035151590602001909291908035906020019064010000000081111561093e57600080fd5b82018360208201111561095057600080fd5b8035906020019184600183028401116401000000008311171561097257600080fd5b91908080601f016020809104026020016040519081016040528093929190818152602001838380828437600081840152601f19601f820116905080830192505050505050509192919290505050611214565b604051808215151515815260200191505060405180910390f35b610a40600480360360408110156109f457600080fd5b81019080803573ffffffffffffffffffffffffffffffffffffffff169060200190929190803573ffffffffffffffffffffffffffffffffffffffff16906020019092919050505061137e565b6040518082815260200191505060405180910390f35b610a5e611405565b6040518082815260200191505060405180910390f35b610aa060048036036020811015610a8a57600080fd5b810190808035906020019092919050505061140f565b604051808215151515815260200191505060405180910390f35b6000610ac733848461149f565b6001905092915050565b6000600254905090565b6000610ae8848484611696565b610b818433610b7c85600160008a73ffffffffffffffffffffffffffffffffffffffff1673ffffffffffffffffffffffffffffffffffffffff16815260200190815260200160002060003373ffffffffffffffffffffffffffffffffffffffff1673ffffffffffffffffffffffffffffffffffffffff1681526020019081526020016000205461193290919063ffffffff16565b61149f565b600190509392505050565b6000610c273384610c2285600160003373ffffffffffffffffffffffffffffffffffffffff1673ffffffffffffffffffffffffffffffffffffffff16815260200190815260200160002060008973ffffffffffffffffffffffffffffffffffffffff1673ffffffffffffffffffffffffffffffffffffffff168152602001908152602001600020546119bb90919063ffffffff16565b61149f565b6001905092915050565b600080610c3d866111e9565b90506000610c4a866111e9565b90503373ffffffffffffffffffffffffffffffffffffffff166003600084815260200190815260200160002060000160009054906101000a900473ffffffffffffffffffffffffffffffffffffffff1673ffffffffffffffffffffffffffffffffffffffff161415610e015760036000838152602001908152602001600020600080820160006101000a81549073ffffffffffffffffffffffffffffffffffffffff02191690556000820160146101000a81549060ff02191690556001820160009055600282016000610d1d9190611a43565b505060405180608001604052803373ffffffffffffffffffffffffffffffffffffffff1681526020016000151581526020018660ff168152602001858152506003600083815260200190815260200160002060008201518160000160006101000a81548173ffffffffffffffffffffffffffffffffffffffff021916908373ffffffffffffffffffffffffffffffffffffffff16021790555060208201518160000160146101000a81548160ff021916908315150217905550604082015181600101556060820151816002019080519060200190610dfc929190611a8b565b509050505b600192505050949350505050565b60008060008373ffffffffffffffffffffffffffffffffffffffff1673ffffffffffffffffffffffffffffffffffffffff168152602001908152602001600020549050919050565b6000610ef23384610eed85600160003373ffffffffffffffffffffffffffffffffffffffff1673ffffffffffffffffffffffffffffffffffffffff16815260200190815260200160002060008973ffffffffffffffffffffffffffffffffffffffff1673ffffffffffffffffffffffffffffffffffffffff1681526020019081526020016000205461193290919063ffffffff16565b61149f565b6001905092915050565b6000610f09338484611696565b6001905092915050565b60008151835114610f6f576040517f08c379a0000000000000000000000000000000000000000000000000000000008152600401808060200182810382526032815260200180611be96032913960400191505060405180910390fd5b6000610f7a876111e9565b905060405180608001604052803373ffffffffffffffffffffffffffffffffffffffff1681526020016000151581526020018760ff168152602001868152506003600083815260200190815260200160002060008201518160000160006101000a81548173ffffffffffffffffffffffffffffffffffffffff021916908373ffffffffffffffffffffffffffffffffffffffff16021790555060208201518160000160146101000a81548160ff021916908315150217905550604082015181600101556060820151816002019080519060200190611059929190611a8b565b5090505060008090505b84518160ff16101561118757611077611b0b565b6040518060400160405280878460ff168151811061109157fe5b602002602001015173ffffffffffffffffffffffffffffffffffffffff168152602001868460ff16815181106110c357fe5b602002602001015160ff168152509050600460008481526020019081526020016000208190806001815401808255809150509060018203906000526020600020016000909192909190915060008201518160000160006101000a81548173ffffffffffffffffffffffffffffffffffffffff021916908373ffffffffffffffffffffffffffffffffffffffff16021790555060208201518160000160146101000a81548160ff021916908360ff160217905550505050508080600101915050611063565b5061119e60016006546119bb90919063ffffffff16565b6006819055507ff57b2c8d38a71002506306b32ba886193245cdbe9f596b91ed43c3d232425d9a816040518082815260200191505060405180910390a1600191505095945050505050565b60006060829050600081511415611206576000801b91505061120f565b60208301519150505b919050565b600061121e611b3e565b6003600061122b856111e9565b81526020019081526020016000206040518060800160405290816000820160009054906101000a900473ffffffffffffffffffffffffffffffffffffffff1673ffffffffffffffffffffffffffffffffffffffff1673ffffffffffffffffffffffffffffffffffffffff1681526020016000820160149054906101000a900460ff1615151515815260200160018201548152602001600282018054600181600116156101000203166002900480601f0160208091040260200160405190810160405280929190818152602001828054600181600116156101000203166002900480156113585780601f1061132d57610100808354040283529160200191611358565b820191906000526020600020905b81548152906001019060200180831161133b57829003601f168201915b505050505081525050905083816020019015159081151581525050600191505092915050565b6000600160008473ffffffffffffffffffffffffffffffffffffffff1673ffffffffffffffffffffffffffffffffffffffff16815260200190815260200160002060008373ffffffffffffffffffffffffffffffffffffffff1673ffffffffffffffffffffffffffffffffffffffff16815260200190815260200160002054905092915050565b6000600654905090565b600060036000838152602001908152602001600020600080820160006101000a81549073ffffffffffffffffffffffffffffffffffffffff02191690556000820160146101000a81549060ff021916905560018201600090556002820160006114789190611a43565b5050611490600160065461193290919063ffffffff16565b60068190555060019050919050565b600073ffffffffffffffffffffffffffffffffffffffff168373ffffffffffffffffffffffffffffffffffffffff161415611525576040517f08c379a0000000000000000000000000000000000000000000000000000000008152600401808060200182810382526024815260200180611c406024913960400191505060405180910390fd5b600073ffffffffffffffffffffffffffffffffffffffff168273ffffffffffffffffffffffffffffffffffffffff1614156115ab576040517f08c379a0000000000000000000000000000000000000000000000000000000008152600401808060200182810382526022815260200180611bc76022913960400191505060405180910390fd5b80600160008573ffffffffffffffffffffffffffffffffffffffff1673ffffffffffffffffffffffffffffffffffffffff16815260200190815260200160002060008473ffffffffffffffffffffffffffffffffffffffff1673ffffffffffffffffffffffffffffffffffffffff168152602001908152602001600020819055508173ffffffffffffffffffffffffffffffffffffffff168373ffffffffffffffffffffffffffffffffffffffff167f8c5be1e5ebec7d5bd14f71427d1e84f3dd0314c0f7b2291e5b200ac8c7c3b925836040518082815260200191505060405180910390a3505050565b600073ffffffffffffffffffffffffffffffffffffffff168373ffffffffffffffffffffffffffffffffffffffff16141561171c576040517f08c379a0000000000000000000000000000000000000000000000000000000008152600401808060200182810382526025815260200180611c1b6025913960400191505060405180910390fd5b600073ffffffffffffffffffffffffffffffffffffffff168273ffffffffffffffffffffffffffffffffffffffff1614156117a2576040517f08c379a0000000000000000000000000000000000000000000000000000000008152600401808060200182810382526023815260200180611ba46023913960400191505060405180910390fd5b6117f3816000808673ffffffffffffffffffffffffffffffffffffffff1673ffffffffffffffffffffffffffffffffffffffff1681526020019081526020016000205461193290919063ffffffff16565b6000808573ffffffffffffffffffffffffffffffffffffffff1673ffffffffffffffffffffffffffffffffffffffff16815260200190815260200160002081905550611886816000808573ffffffffffffffffffffffffffffffffffffffff1673ffffffffffffffffffffffffffffffffffffffff168152602001908152602001600020546119bb90919063ffffffff16565b6000808473ffffffffffffffffffffffffffffffffffffffff1673ffffffffffffffffffffffffffffffffffffffff168152602001908152602001600020819055508173ffffffffffffffffffffffffffffffffffffffff168373ffffffffffffffffffffffffffffffffffffffff167fddf252ad1be2c89b69c2b068fc378daa952ba7f163c4a11628f55a4df523b3ef836040518082815260200191505060405180910390a3505050565b6000828211156119aa576040517f08c379a000000000000000000000000000000000000000000000000000000000815260040180806020018281038252601e8152602001807f536166654d6174683a207375627472616374696f6e206f766572666c6f77000081525060200191505060405180910390fd5b600082840390508091505092915050565b600080828401905083811015611a39576040517f08c379a000000000000000000000000000000000000000000000000000000000815260040180806020018281038252601b8152602001807f536166654d6174683a206164646974696f6e206f766572666c6f77000000000081525060200191505060405180910390fd5b8091505092915050565b50805460018160011615610100020316600290046000825580601f10611a695750611a88565b601f016020900490600052602060002090810190611a879190611b7e565b5b50565b828054600181600116156101000203166002900490600052602060002090601f016020900481019282601f10611acc57805160ff1916838001178555611afa565b82800160010185558215611afa579182015b82811115611af9578251825591602001919060010190611ade565b5b509050611b079190611b7e565b5090565b6040518060400160405280600073ffffffffffffffffffffffffffffffffffffffff168152602001600060ff1681525090565b6040518060800160405280600073ffffffffffffffffffffffffffffffffffffffff16815260200160001515815260200160008152602001606081525090565b611ba091905b80821115611b9c576000816000905550600101611b84565b5090565b9056fe45524332303a207472616e7366657220746f20746865207a65726f206164647265737345524332303a20617070726f766520746f20746865207a65726f20616464726573735368617265686f6c6465727320616e642073686172657320617265206e6f74206f66207468652073616d65206c656e67746845524332303a207472616e736665722066726f6d20746865207a65726f206164647265737345524332303a20617070726f76652066726f6d20746865207a65726f2061646472657373a165627a7a723058206084beeb8a405ae01bd91c3bbbc22dcfea50dd754defd315fd987388f72ec6970029",
  "source": "pragma solidity ^0.5.0;\n\nimport \"@openzeppelin/contracts/math/SafeMath.sol\";\nimport \"@openzeppelin/contracts/token/ERC20/ERC20.sol\";\n\n/*\n    The smart contract should fulfill all requirements of the ERC20 standard as required by the Drizzle Framework\n*/\n\ncontract MediaLibrary is ERC20 {\n    using SafeMath for uint256;\n\n    // The share represents the divisor\n    struct Share {\n        address shareholder;\n        uint8 share;\n    }\n\n    struct  MediaFile {\n        address artist;\n        bool approved;\n        uint256 price;\n        string ipfsAddress;\n    }\n\n    mapping(bytes32 => MediaFile) mediaLibrary;\n    mapping(bytes32 => Share[]) shareholderLibrary;\n\n    mapping(address => bool) approverIDs;\n\n\n    uint256 numOfMediaFiles;    // Number of media files\n    address payable owner;      // Person, who deployed this smart contract\n\n    constructor() public {\n        owner = msg.sender;\n        numOfMediaFiles = 0;\n    }\n\n\n    event MediaIDEvent(bytes32);\n\n\n    // Add a new media file to the smart contract\n    function registerMediaFile(string memory mediaFile, uint8 price, string memory ipfsAddress, address[] memory shareholders, uint8[] memory shares) public returns(bool) {\n        require(shareholders.length == shares.length, \"Shareholders and shares are not of the same length\");\n\n        bytes32 mediaId = stringToBytes32(mediaFile);\n\n        mediaLibrary[mediaId] = MediaFile(msg.sender, false, price, ipfsAddress);\n\n\n        for(uint8 i=0; i < shareholders.length; i++) {\n            Share memory s = Share(shareholders[i], shares[i]);\n            shareholderLibrary[mediaId].push(s);\n        }\n\n        // The media file being uploaded, downloaded, or streamed\n        numOfMediaFiles = numOfMediaFiles.add(1);\n\n        emit MediaIDEvent(mediaId);\n\n        return true;\n    }\n\n    //Returns the current number of media files orchestrated by the smart contract\n    function getNumOfMediaFiles() public view returns(uint256) {\n        return numOfMediaFiles;\n    }\n\n    // Update a registered media file\n    function updateMediaFile(string memory oldFile, string memory newFile, uint8 newPrice, string memory ipfsArray) public returns(bool) {\n        bytes32 oldFileHash = stringToBytes32(oldFile);\n        bytes32 newFileHash = stringToBytes32(newFile);\n\n        if(mediaLibrary[oldFileHash].artist  == msg.sender) {\n            delete mediaLibrary[oldFileHash];\n\n            mediaLibrary[newFileHash] = MediaFile(msg.sender, false, newPrice, ipfsArray);\n        }\n\n        return true;\n    }\n\n\n    // Remove an already registered media file from the smart contract registry\n    function unregisterMediaFile(bytes32 trackId) public returns(bool) {\n        //assert(mediaLibrary[trackId].sender == tx.sender, \"You are not the owner.\");\n\n        delete mediaLibrary[trackId];\n        numOfMediaFiles = numOfMediaFiles.sub(1);\n\n        return true;\n    }\n\n\n    // Request an registered media file hash and artist\n    function checkAccessToMediaFile(string memory trackId) private view returns (bool) {\n        MediaFile memory mediaFile = mediaLibrary[stringToBytes32(trackId)];\n\n        if(mediaFile.approved == true || approverIDs[msg.sender])\n            return true;\n\n        return false;\n    }\n\n    // Approve a registered media file\n    function approveMediaFile(bool approved, string memory trackId) public view returns(bool) {\n        MediaFile memory file = mediaLibrary[stringToBytes32(trackId)];\n        file.approved = approved;\n\n        return true;\n    }\n\n\n    /**\n      Below, there are helper functions for the conversion of data types\n    */\n\n    // Helper function hashing\n    function createTrackId(address artist) private pure returns(bytes32) {\n        uint256 _unixTimestamp;\n        uint256 _timeExpired;\n\n        return keccak256(abi.encodePacked(artist, _unixTimestamp, _timeExpired));\n    }\n\n    // Convert string to bytes32\n    function stringToBytes32(string memory source) public pure returns(bytes32 result) {\n        bytes memory tmpEmptyStringTest = bytes(source);\n        if (tmpEmptyStringTest.length == 0) {\n            return 0x0;\n        }\n\n        assembly {\n            result := mload(add(source, 32))\n        }\n    }\n\n}",
  "sourcePath": "/home/dehling/Development/DiGiDi/contracts/MediaLibrary.sol",
  "compiler": {
    "name": "solc",
    "version": "0.5.8+commit.23d335f2.Emscripten.clang"
  },
  "schemaVersion": "3.0.11",
  "updatedAt": "2019-08-15T15:29:34.449Z",
  "devdoc": {
    "methods": {
      "allowance(address,address)": {
        "details": "See `IERC20.allowance`."
      },
      "approve(address,uint256)": {
        "details": "See `IERC20.approve`.     * Requirements:     * - `spender` cannot be the zero address."
      },
      "balanceOf(address)": {
        "details": "See `IERC20.balanceOf`."
      },
      "decreaseAllowance(address,uint256)": {
        "details": "Atomically decreases the allowance granted to `spender` by the caller.     * This is an alternative to `approve` that can be used as a mitigation for problems described in `IERC20.approve`.     * Emits an `Approval` event indicating the updated allowance.     * Requirements:     * - `spender` cannot be the zero address. - `spender` must have allowance for the caller of at least `subtractedValue`."
      },
      "increaseAllowance(address,uint256)": {
        "details": "Atomically increases the allowance granted to `spender` by the caller.     * This is an alternative to `approve` that can be used as a mitigation for problems described in `IERC20.approve`.     * Emits an `Approval` event indicating the updated allowance.     * Requirements:     * - `spender` cannot be the zero address."
      },
      "totalSupply()": {
        "details": "See `IERC20.totalSupply`."
      },
      "transfer(address,uint256)": {
        "details": "See `IERC20.transfer`.     * Requirements:     * - `recipient` cannot be the zero address. - the caller must have a balance of at least `amount`."
      },
      "transferFrom(address,address,uint256)": {
        "details": "See `IERC20.transferFrom`.     * Emits an `Approval` event indicating the updated allowance. This is not required by the EIP. See the note at the beginning of `ERC20`;     * Requirements: - `sender` and `recipient` cannot be the zero address. - `sender` must have a balance of at least `value`. - the caller must have allowance for `sender`'s tokens of at least `amount`."
      }
    }
  },
  "userdoc": {
    "methods": {}
  }
}