{
  "contractName": "Payments",
  "abi": [
    {
      "inputs": [],
      "payable": false,
      "stateMutability": "nonpayable",
      "type": "constructor"
    },
    {
      "constant": false,
      "inputs": [
        {
          "name": "usr",
          "type": "address"
        }
      ],
      "name": "requestPayment",
      "outputs": [
        {
          "name": "",
          "type": "bool"
        }
      ],
      "payable": false,
      "stateMutability": "nonpayable",
      "type": "function"
    },
    {
      "constant": false,
      "inputs": [
        {
          "name": "usr",
          "type": "address"
        }
      ],
      "name": "getBalance",
      "outputs": [
        {
          "name": "",
          "type": "uint128"
        }
      ],
      "payable": false,
      "stateMutability": "nonpayable",
      "type": "function"
    },
    {
      "constant": false,
      "inputs": [
        {
          "name": "shareholder",
          "type": "address"
        },
        {
          "name": "amount",
          "type": "uint8"
        }
      ],
      "name": "updateOwed",
      "outputs": [
        {
          "name": "",
          "type": "bool"
        }
      ],
      "payable": false,
      "stateMutability": "nonpayable",
      "type": "function"
    },
    {
      "constant": false,
      "inputs": [
        {
          "name": "usr",
          "type": "address"
        },
        {
          "name": "price",
          "type": "uint8"
        }
      ],
      "name": "enoughFunds",
      "outputs": [
        {
          "name": "",
          "type": "bool"
        }
      ],
      "payable": false,
      "stateMutability": "nonpayable",
      "type": "function"
    }
  ],
  "bytecode": "0x60806040526000805534801561001457600080fd5b5033600160006101000a81548173ffffffffffffffffffffffffffffffffffffffff021916908373ffffffffffffffffffffffffffffffffffffffff160217905550610556806100656000396000f3fe608060405234801561001057600080fd5b506004361061004c5760003560e01c806358b53f85146100515780638685ac5d146100ba578063da1b43cd14610116578063f8b2cb4f1461017f575b600080fd5b6100a06004803603604081101561006757600080fd5b81019080803573ffffffffffffffffffffffffffffffffffffffff169060200190929190803560ff1690602001909291905050506101fb565b604051808215151515815260200191505060405180910390f35b6100fc600480360360208110156100d057600080fd5b81019080803573ffffffffffffffffffffffffffffffffffffffff1690602001909291905050506102a1565b604051808215151515815260200191505060405180910390f35b6101656004803603604081101561012c57600080fd5b81019080803573ffffffffffffffffffffffffffffffffffffffff169060200190929190803560ff1690602001909291905050506104b9565b604051808215151515815260200191505060405180910390f35b6101c16004803603602081101561019557600080fd5b81019080803573ffffffffffffffffffffffffffffffffffffffff1690602001909291905050506104c5565b60405180826fffffffffffffffffffffffffffffffff166fffffffffffffffffffffffffffffffff16815260200191505060405180910390f35b60008160ff16600260008573ffffffffffffffffffffffffffffffffffffffff1673ffffffffffffffffffffffffffffffffffffffff16815260200190815260200160002060008282829054906101000a90046fffffffffffffffffffffffffffffffff160192506101000a8154816fffffffffffffffffffffffffffffffff02191690836fffffffffffffffffffffffffffffffff1602179055506001905092915050565b600080600260008473ffffffffffffffffffffffffffffffffffffffff1673ffffffffffffffffffffffffffffffffffffffff16815260200190815260200160002060009054906101000a90046fffffffffffffffffffffffffffffffff166fffffffffffffffffffffffffffffffff1611610385576040517f08c379a00000000000000000000000000000000000000000000000000000000081526004018080602001828103825260198152602001807f596f7520617265206e6f74206f77656420616e797468696e670000000000000081525060200191505060405180910390fd5b6000600260008473ffffffffffffffffffffffffffffffffffffffff1673ffffffffffffffffffffffffffffffffffffffff16815260200190815260200160002060006101000a8154816fffffffffffffffffffffffffffffffff02191690836fffffffffffffffffffffffffffffffff1602179055503373ffffffffffffffffffffffffffffffffffffffff166108fc600260008573ffffffffffffffffffffffffffffffffffffffff1673ffffffffffffffffffffffffffffffffffffffff16815260200190815260200160002060009054906101000a90046fffffffffffffffffffffffffffffffff166fffffffffffffffffffffffffffffffff169081150290604051600060405180830381858888f193505050501580156104af573d6000803e3d6000fd5b5060019050919050565b60006001905092915050565b6000600260008373ffffffffffffffffffffffffffffffffffffffff1673ffffffffffffffffffffffffffffffffffffffff16815260200190815260200160002060009054906101000a90046fffffffffffffffffffffffffffffffff16905091905056fea165627a7a72305820604064364f76384222f9306374dd9b0a06afe988a0b34a904c8b89a86f6f5a830029",
  "source": "pragma solidity ^0.5.8;\n// The current version does not use micropayments, uRaiden, nor state-channels.\n// These are all technologies which could be used, but given the constraints of a 2 day hack a ton\n\n// The purpose of this contract is to check that user has access to the song.\n// If the user does not have access, the user should pay\n// and then split then funds among the shares\n\nimport \"@openzeppelin/contracts/math/SafeMath.sol\";\nimport \"@openzeppelin/contracts/payment/PullPayment.sol\";\nimport \"./MediaLibrary.sol\";\n\ncontract Payments {\n    using SafeMath for uint256;\n\n    uint safeIndexOwed = 0;\n    address payable owner;\n\n    /**\n        The map of tokens/money owed.\n        The address is the address of the shareholders, and the money owed to them\n        All values are calculated in Finney because of the insufficient decimal calculation of Solidity\n    */\n    mapping (address => uint128) owed;\n\n    constructor() public {\n        owner = msg.sender;\n    }\n\n    // Payout to the msg.sender if they are owe some ether\n    function requestPayment(address usr) public returns(bool) {\n        require(owed[usr] > 0, \"You are not owed anything\");\n\n        owed[usr] = 0;\n        msg.sender.transfer(owed[usr]);\n\n        return true;\n    }\n\n    // Lets the msg.sender know their balance\n    function getBalance(address usr) external returns (uint128) {\n        // require(owed[msg.sender] > 0, \"You are not owed anything\");\n        return owed[usr];\n    }\n\n\n    // Whenever a MediaFile is purchased, we update the amount owed\n    function updateOwed(address shareholder, uint8 amount) external returns(bool) {\n        owed[shareholder] += amount;\n        return true;\n    }\n\n    // Check if the user has sufficient funds\n    function enoughFunds(address usr, uint8 price) public returns(bool) {\n        //todo\n\n        return true;\n    }\n}\n",
  "sourcePath": "/home/dehling/Development/DiGiDi/contracts/Payments.sol",
  "compiler": {
    "name": "solc",
    "version": "0.5.8+commit.23d335f2.Emscripten.clang"
  },
  "schemaVersion": "3.0.11",
  "updatedAt": "2019-08-15T10:33:17.868Z",
  "devdoc": {
    "methods": {}
  },
  "userdoc": {
    "methods": {}
  }
}